{
  "transactions": [
    {
      "hash": "0x329ef0a723e55dbe41f465283fbcfdbc416224d3881e0d3ebff03ecee4190325",
      "transactionType": "CALL",
      "contractName": null,
      "contractAddress": "0xb34bf9bb900fa83314d176e9195e0c3ea37ff43e",
      "function": "transferOwnership(address)",
      "arguments": [
        "0x1ad157B53f81Db0f4A5588CE61F897e80CFd04b6"
      ],
      "transaction": {
        "from": "0x12e048d4f26f54c0625ef34fabd365e4f925f2ff",
        "to": "0xb34bf9bb900fa83314d176e9195e0c3ea37ff43e",
        "gas": "0xb6b4",
        "value": "0x0",
        "input": "0xf2fde38b0000000000000000000000001ad157b53f81db0f4a5588ce61f897e80cfd04b6",
        "nonce": "0xdc",
        "chainId": "0x103e"
      },
      "additionalContracts": [],
      "isFixedGasLimit": false
    },
    {
      "hash": "0x8abde11d4f44bdcad32711a811f058a2805372e207f0629dc20ba5b16820e9aa",
      "transactionType": "CALL",
      "contractName": null,
      "contractAddress": "0xeeea508c10dcfd3f1e482d2af2e830a1d4b94f86",
      "function": "transferOwnership(address)",
      "arguments": [
        "0x1ad157B53f81Db0f4A5588CE61F897e80CFd04b6"
      ],
      "transaction": {
        "from": "0x12e048d4f26f54c0625ef34fabd365e4f925f2ff",
        "to": "0xeeea508c10dcfd3f1e482d2af2e830a1d4b94f86",
        "gas": "0xb71a",
        "value": "0x0",
        "input": "0xf2fde38b0000000000000000000000001ad157b53f81db0f4a5588ce61f897e80cfd04b6",
        "nonce": "0xdd",
        "chainId": "0x103e"
      },
      "additionalContracts": [],
      "isFixedGasLimit": false
    },
    {
      "hash": "0x0ac4eb7cec8dd07d1df353300d6c9aac3bba59c8e0aeb052ed150e7f9faf2149",
      "transactionType": "CALL",
      "contractName": null,
      "contractAddress": "0x8e87f947b0a99d99b433c61e664b3ed387a8d034",
      "function": "transferOwnership(address)",
      "arguments": [
        "0x1ad157B53f81Db0f4A5588CE61F897e80CFd04b6"
      ],
      "transaction": {
        "from": "0x12e048d4f26f54c0625ef34fabd365e4f925f2ff",
        "to": "0x8e87f947b0a99d99b433c61e664b3ed387a8d034",
        "gas": "0xb492",
        "value": "0x0",
        "input": "0xf2fde38b0000000000000000000000001ad157b53f81db0f4a5588ce61f897e80cfd04b6",
        "nonce": "0xde",
        "chainId": "0x103e"
      },
      "additionalContracts": [],
      "isFixedGasLimit": false
    },
    {
      "hash": "0x17d38d5adf70108d8e5c48e380e48dc4d6ed666039fe29bc6515117c2a39885a",
      "transactionType": "CALL",
      "contractName": null,
      "contractAddress": "0x10baa5c14ebde8681e83b2503682b3f45b8dc4c2",
      "function": "transferOwnership(address)",
      "arguments": [
        "0x1ad157B53f81Db0f4A5588CE61F897e80CFd04b6"
      ],
      "transaction": {
        "from": "0x12e048d4f26f54c0625ef34fabd365e4f925f2ff",
        "to": "0x10baa5c14ebde8681e83b2503682b3f45b8dc4c2",
        "gas": "0xb968",
        "value": "0x0",
        "input": "0xf2fde38b0000000000000000000000001ad157b53f81db0f4a5588ce61f897e80cfd04b6",
        "nonce": "0xdf",
        "chainId": "0x103e"
      },
      "additionalContracts": [],
      "isFixedGasLimit": false
    },
    {
      "hash": "0x6f18b7d052578554c7ff9e0741e50aba75643ee80e8a9f8818553c98c9433e58",
      "transactionType": "CALL",
      "contractName": null,
      "contractAddress": "0x48157f21563ac5bd87b00d4e885bdb728ab619e2",
      "function": "transferOwnership(address)",
      "arguments": [
        "0x1ad157B53f81Db0f4A5588CE61F897e80CFd04b6"
      ],
      "transaction": {
        "from": "0x12e048d4f26f54c0625ef34fabd365e4f925f2ff",
        "to": "0x48157f21563ac5bd87b00d4e885bdb728ab619e2",
        "gas": "0xc0bd",
        "value": "0x0",
        "input": "0xf2fde38b0000000000000000000000001ad157b53f81db0f4a5588ce61f897e80cfd04b6",
        "nonce": "0xe0",
        "chainId": "0x103e"
      },
      "additionalContracts": [],
      "isFixedGasLimit": false
    },
    {
      "hash": "0x714ce0bca06675886c9712e8eb0ce444d4fe9918856b588179cde7345e3f6cad",
      "transactionType": "CALL",
      "contractName": null,
      "contractAddress": "0x41e7789d716ac9f7406d559d8344fd84a3670025",
      "function": "transferOwnership(address)",
      "arguments": [
        "0x1ad157B53f81Db0f4A5588CE61F897e80CFd04b6"
      ],
      "transaction": {
        "from": "0x12e048d4f26f54c0625ef34fabd365e4f925f2ff",
        "to": "0x41e7789d716ac9f7406d559d8344fd84a3670025",
        "gas": "0xb42a",
        "value": "0x0",
        "input": "0xf2fde38b0000000000000000000000001ad157b53f81db0f4a5588ce61f897e80cfd04b6",
        "nonce": "0xe1",
        "chainId": "0x103e"
      },
      "additionalContracts": [],
      "isFixedGasLimit": false
    },
    {
      "hash": "0xb3c6ae97714ee9c33c1bb675cc7f252d8d52ff85f0037b3712ceccea90fef58e",
      "transactionType": "CALL",
      "contractName": null,
      "contractAddress": "0xf6123e406049eb4cef89e81266c6320f1a35620b",
      "function": "transferOwnership(address)",
      "arguments": [
        "0x1ad157B53f81Db0f4A5588CE61F897e80CFd04b6"
      ],
      "transaction": {
        "from": "0x12e048d4f26f54c0625ef34fabd365e4f925f2ff",
        "to": "0xf6123e406049eb4cef89e81266c6320f1a35620b",
        "gas": "0xb42a",
        "value": "0x0",
        "input": "0xf2fde38b0000000000000000000000001ad157b53f81db0f4a5588ce61f897e80cfd04b6",
        "nonce": "0xe2",
        "chainId": "0x103e"
      },
      "additionalContracts": [],
      "isFixedGasLimit": false
    },
    {
      "hash": "0x4b113ae5f2bd081d8b808319d9e793fb9c9a954bd0087c6d65cc1a259f15b9b7",
      "transactionType": "CALL",
      "contractName": null,
      "contractAddress": "0x5e0054070ebdd639f30cc8f51a709ac0fad9f9bf",
      "function": "transferOwnership(address)",
      "arguments": [
        "0x1ad157B53f81Db0f4A5588CE61F897e80CFd04b6"
      ],
      "transaction": {
        "from": "0x12e048d4f26f54c0625ef34fabd365e4f925f2ff",
        "to": "0x5e0054070ebdd639f30cc8f51a709ac0fad9f9bf",
        "gas": "0xb42a",
        "value": "0x0",
        "input": "0xf2fde38b0000000000000000000000001ad157b53f81db0f4a5588ce61f897e80cfd04b6",
        "nonce": "0xe3",
        "chainId": "0x103e"
      },
      "additionalContracts": [],
      "isFixedGasLimit": false
    },
    {
      "hash": "0x698e2143a939ad1be72fb9c0fe6eb5cf3702852d2edece0f529462a17843f906",
      "transactionType": "CALL",
      "contractName": null,
      "contractAddress": "0x53a3ba771ee61f6484c5b2a902d2674bf52ad832",
      "function": "transferOwnership(address)",
      "arguments": [
        "0x1ad157B53f81Db0f4A5588CE61F897e80CFd04b6"
      ],
      "transaction": {
        "from": "0x12e048d4f26f54c0625ef34fabd365e4f925f2ff",
        "to": "0x53a3ba771ee61f6484c5b2a902d2674bf52ad832",
        "gas": "0xb42a",
        "value": "0x0",
        "input": "0xf2fde38b0000000000000000000000001ad157b53f81db0f4a5588ce61f897e80cfd04b6",
        "nonce": "0xe4",
        "chainId": "0x103e"
      },
      "additionalContracts": [],
      "isFixedGasLimit": false
    },
    {
      "hash": "0x1018c30695a471ed17e3c16d245d62037bb38b48b5fc5e306eb4597ffd18511a",
      "transactionType": "CALL",
      "contractName": null,
      "contractAddress": "0xbb5c7f82bf9817f6e46c5b20c863558ecc66e129",
      "function": "transferOwnership(address)",
      "arguments": [
        "0x1ad157B53f81Db0f4A5588CE61F897e80CFd04b6"
      ],
      "transaction": {
        "from": "0x12e048d4f26f54c0625ef34fabd365e4f925f2ff",
        "to": "0xbb5c7f82bf9817f6e46c5b20c863558ecc66e129",
        "gas": "0xb42a",
        "value": "0x0",
        "input": "0xf2fde38b0000000000000000000000001ad157b53f81db0f4a5588ce61f897e80cfd04b6",
        "nonce": "0xe5",
        "chainId": "0x103e"
      },
      "additionalContracts": [],
      "isFixedGasLimit": false
    },
    {
      "hash": "0xa667cc7d634a46e34bf3a84556245b2dead7db5d9c3a17b191b69271d3d747cb",
      "transactionType": "CALL",
      "contractName": null,
      "contractAddress": "0xd70bb02e48178635c2e4e7453960f46fba358098",
      "function": "transferOwnership(address)",
      "arguments": [
        "0x1ad157B53f81Db0f4A5588CE61F897e80CFd04b6"
      ],
      "transaction": {
        "from": "0x12e048d4f26f54c0625ef34fabd365e4f925f2ff",
        "to": "0xd70bb02e48178635c2e4e7453960f46fba358098",
        "gas": "0xb42a",
        "value": "0x0",
        "input": "0xf2fde38b0000000000000000000000001ad157b53f81db0f4a5588ce61f897e80cfd04b6",
        "nonce": "0xe6",
        "chainId": "0x103e"
      },
      "additionalContracts": [],
      "isFixedGasLimit": false
    },
    {
      "hash": "0x749af1b5d6524d5b34624ee08d7516c86bf87ea00bc8c0611ac33a5a614d13cd",
      "transactionType": "CALL",
      "contractName": null,
      "contractAddress": "0x8bd5fe9286b039cc38d9b63865a8e87736382ccf",
      "function": "transferOwnership(address)",
      "arguments": [
        "0x1ad157B53f81Db0f4A5588CE61F897e80CFd04b6"
      ],
      "transaction": {
        "from": "0x12e048d4f26f54c0625ef34fabd365e4f925f2ff",
        "to": "0x8bd5fe9286b039cc38d9b63865a8e87736382ccf",
        "gas": "0xc047",
        "value": "0x0",
        "input": "0xf2fde38b0000000000000000000000001ad157b53f81db0f4a5588ce61f897e80cfd04b6",
        "nonce": "0xe7",
        "chainId": "0x103e"
      },
      "additionalContracts": [],
      "isFixedGasLimit": false
    }
  ],
  "receipts": [
    {
      "status": "0x1",
      "cumulativeGasUsed": "0x8447",
      "logs": [
        {
          "address": "0xb34bf9bb900fa83314d176e9195e0c3ea37ff43e",
          "topics": [
            "0x8be0079c531659141344cd1fd0a4f28419497f9722a3daafe3b4186f6b6457e0",
            "0x00000000000000000000000012e048d4f26f54c0625ef34fabd365e4f925f2ff",
            "0x0000000000000000000000001ad157b53f81db0f4a5588ce61f897e80cfd04b6"
          ],
          "data": "0x",
          "blockHash": "0x34d07f56297091887f3ac66a98bb6df6976902b5a079a7e211bb807727a22770",
          "blockNumber": "0x31f256",
          "transactionHash": "0x329ef0a723e55dbe41f465283fbcfdbc416224d3881e0d3ebff03ecee4190325",
          "transactionIndex": "0x0",
          "logIndex": "0x0",
          "removed": false
        }
      ],
      "logsBloom": "0x00000000000000000000000000000000000000000000000000800000000000000800000000000000000002000040000000000000000000000104000000000000000000000000000000000000000000000001000000000000000000000000000000000000000000000000000000000000000000010000000000000000000000400000000001000000000000000000000000000000000000000000000020000800000000000000000000000000000000000000000000000000000000000000000000000000000000000000000000000000000000000000000000000000000000000000000000000000000000000000000000000000000000000000000000000000",
      "type": "0x2",
      "transactionHash": "0x329ef0a723e55dbe41f465283fbcfdbc416224d3881e0d3ebff03ecee4190325",
      "transactionIndex": "0x0",
      "blockHash": "0x34d07f56297091887f3ac66a98bb6df6976902b5a079a7e211bb807727a22770",
      "blockNumber": "0x31f256",
      "gasUsed": "0x8447",
      "effectiveGasPrice": "0x746a528801",
      "from": "0x12e048d4f26f54c0625ef34fabd365e4f925f2ff",
      "to": "0xb34bf9bb900fa83314d176e9195e0c3ea37ff43e",
      "contractAddress": null
    },
    {
      "status": "0x1",
      "cumulativeGasUsed": "0x8490",
      "logs": [
        {
          "address": "0xeeea508c10dcfd3f1e482d2af2e830a1d4b94f86",
          "topics": [
            "0x8be0079c531659141344cd1fd0a4f28419497f9722a3daafe3b4186f6b6457e0",
            "0x00000000000000000000000012e048d4f26f54c0625ef34fabd365e4f925f2ff",
            "0x0000000000000000000000001ad157b53f81db0f4a5588ce61f897e80cfd04b6"
          ],
          "data": "0x",
          "blockHash": "0x44e104bbd7acce873c9b631e7e3db62f47922c3dbb10cc28a36da060a6cb977c",
          "blockNumber": "0x31f257",
          "transactionHash": "0x8abde11d4f44bdcad32711a811f058a2805372e207f0629dc20ba5b16820e9aa",
          "transactionIndex": "0x0",
          "logIndex": "0x0",
          "removed": false
        }
      ],
      "logsBloom": "0x00000000000000000000000000000040000000000000000000800000000000000800000000000000000000000040000000000000000000000104000000000000000000000000000000000000000000000001000000000000000000000000000000000000000000000000000000000000000000000000000000000000000000400000000000000000000000000000000000000000000000000000000020020800000000000000000000000000000000000000000000000000000000000000000000000000000000000000000000000000000000000000000000000000000000000000000000000000000000000000000000000000000000000000000040000000",
      "type": "0x2",
      "transactionHash": "0x8abde11d4f44bdcad32711a811f058a2805372e207f0629dc20ba5b16820e9aa",
      "transactionIndex": "0x0",
      "blockHash": "0x44e104bbd7acce873c9b631e7e3db62f47922c3dbb10cc28a36da060a6cb977c",
      "blockNumber": "0x31f257",
      "gasUsed": "0x8490",
      "effectiveGasPrice": "0x746a528801",
      "from": "0x12e048d4f26f54c0625ef34fabd365e4f925f2ff",
      "to": "0xeeea508c10dcfd3f1e482d2af2e830a1d4b94f86",
      "contractAddress": null
    },
    {
      "status": "0x1",
      "cumulativeGasUsed": "0x82bc",
      "logs": [
        {
          "address": "0x8e87f947b0a99d99b433c61e664b3ed387a8d034",
          "topics": [
            "0x8be0079c531659141344cd1fd0a4f28419497f9722a3daafe3b4186f6b6457e0",
            "0x00000000000000000000000012e048d4f26f54c0625ef34fabd365e4f925f2ff",
            "0x0000000000000000000000001ad157b53f81db0f4a5588ce61f897e80cfd04b6"
          ],
          "data": "0x",
          "blockHash": "0x00c8928c014e9ecd975b79ae79f46845c0f000a643dd4e99097a348a75361efa",
          "blockNumber": "0x31f258",
          "transactionHash": "0x0ac4eb7cec8dd07d1df353300d6c9aac3bba59c8e0aeb052ed150e7f9faf2149",
          "transactionIndex": "0x0",
          "logIndex": "0x0",
          "removed": false
        }
      ],
      "logsBloom": "0x00000000000000000000000000000000000000000000000000800000000000000800000000000000000000000040000000000000000000000104000000000000000000000001000000000000000000000001000000000000000000000000000000000000000000000000000000000000002000000000000000000000000000400000000000000000000000000000000000000000000000000000000020000800000000000000000000000000000000000000000000000000004000000000000000000000000000000000000000000000000000000000000000000000000000000000000000000000000000000000000000000000000000000000000000000000",
      "type": "0x2",
      "transactionHash": "0x0ac4eb7cec8dd07d1df353300d6c9aac3bba59c8e0aeb052ed150e7f9faf2149",
      "transactionIndex": "0x0",
      "blockHash": "0x00c8928c014e9ecd975b79ae79f46845c0f000a643dd4e99097a348a75361efa",
      "blockNumber": "0x31f258",
      "gasUsed": "0x82bc",
      "effectiveGasPrice": "0x746a528801",
      "from": "0x12e048d4f26f54c0625ef34fabd365e4f925f2ff",
      "to": "0x8e87f947b0a99d99b433c61e664b3ed387a8d034",
      "contractAddress": null
    },
    {
      "status": "0x1",
      "cumulativeGasUsed": "0x863c",
      "logs": [
        {
          "address": "0x10baa5c14ebde8681e83b2503682b3f45b8dc4c2",
          "topics": [
            "0x8be0079c531659141344cd1fd0a4f28419497f9722a3daafe3b4186f6b6457e0",
            "0x00000000000000000000000012e048d4f26f54c0625ef34fabd365e4f925f2ff",
            "0x0000000000000000000000001ad157b53f81db0f4a5588ce61f897e80cfd04b6"
          ],
          "data": "0x",
          "blockHash": "0xa4c471a1b14d75d4644951d833b7c9b01d2ddd8ee0aa7766c5bce309627c69d9",
          "blockNumber": "0x31f259",
          "transactionHash": "0x17d38d5adf70108d8e5c48e380e48dc4d6ed666039fe29bc6515117c2a39885a",
          "transactionIndex": "0x0",
          "logIndex": "0x0",
          "removed": false
        }
      ],
      "logsBloom": "0x00000000000000000000000000000000000000000000000000800000000000004801000000000000000000000040000000000000000000000104000000000000000000000000000000000000000000000001000200000000000000000000000000000000000000000000000000000000000000000000000000000000000000400000000000000000000000000000000000000000000000000000000020000800000000000000000000000000000000000000000000000000000000000000000000000000000000000000000000000000000000000000000000000000000000000000000000000000000000000000000000000000000000000000000000000000",
      "type": "0x2",
      "transactionHash": "0x17d38d5adf70108d8e5c48e380e48dc4d6ed666039fe29bc6515117c2a39885a",
      "transactionIndex": "0x0",
      "blockHash": "0xa4c471a1b14d75d4644951d833b7c9b01d2ddd8ee0aa7766c5bce309627c69d9",
      "blockNumber": "0x31f259",
      "gasUsed": "0x863c",
      "effectiveGasPrice": "0x746a528801",
      "from": "0x12e048d4f26f54c0625ef34fabd365e4f925f2ff",
      "to": "0x10baa5c14ebde8681e83b2503682b3f45b8dc4c2",
      "contractAddress": null
    },
    {
      "status": "0x1",
      "cumulativeGasUsed": "0x83ca",
      "logs": [
        {
          "address": "0x48157f21563ac5bd87b00d4e885bdb728ab619e2",
          "topics": [
            "0x8be0079c531659141344cd1fd0a4f28419497f9722a3daafe3b4186f6b6457e0",
            "0x00000000000000000000000012e048d4f26f54c0625ef34fabd365e4f925f2ff",
            "0x0000000000000000000000001ad157b53f81db0f4a5588ce61f897e80cfd04b6"
          ],
          "data": "0x",
          "blockHash": "0x1c4ffa8c20a8acd3fddbc2c826f1c1bf1a72ba3503b755c20136c3255af9f186",
          "blockNumber": "0x31f25a",
          "transactionHash": "0x6f18b7d052578554c7ff9e0741e50aba75643ee80e8a9f8818553c98c9433e58",
          "transactionIndex": "0x0",
          "logIndex": "0x0",
          "removed": false
        }
      ],
      "logsBloom": "0x00000000000000000000000000000000000000000000000000800000000000000800000000000000000000000040000000000000000000000104000000000000000000000000000000000000000000000001000000000000000000000000000400000000000000000000000000000000000002000000000000000000000000400000000000000000000000000000000000000000000000000000000020000800000000000000000000000000000000000000000000000000000000000000000000000000000010000000000000000000000000000000000000000000000000000000000000000000000000000000000000000000000000000000000000000000",
      "type": "0x2",
      "transactionHash": "0x6f18b7d052578554c7ff9e0741e50aba75643ee80e8a9f8818553c98c9433e58",
      "transactionIndex": "0x0",
      "blockHash": "0x1c4ffa8c20a8acd3fddbc2c826f1c1bf1a72ba3503b755c20136c3255af9f186",
      "blockNumber": "0x31f25a",
      "gasUsed": "0x83ca",
      "effectiveGasPrice": "0x746a528801",
      "from": "0x12e048d4f26f54c0625ef34fabd365e4f925f2ff",
      "to": "0x48157f21563ac5bd87b00d4e885bdb728ab619e2",
      "contractAddress": null
    },
    {
      "status": "0x1",
      "cumulativeGasUsed": "0x7b31",
      "logs": [
        {
          "address": "0x41e7789d716ac9f7406d559d8344fd84a3670025",
          "topics": [
            "0x8be0079c531659141344cd1fd0a4f28419497f9722a3daafe3b4186f6b6457e0",
            "0x00000000000000000000000012e048d4f26f54c0625ef34fabd365e4f925f2ff",
            "0x0000000000000000000000001ad157b53f81db0f4a5588ce61f897e80cfd04b6"
          ],
          "data": "0x",
          "blockHash": "0xd2cc2a566f471d7e794218488141e75cc7e1a98dad9fd8259c8af2e52e18e6c8",
          "blockNumber": "0x31f25b",
          "transactionHash": "0x714ce0bca06675886c9712e8eb0ce444d4fe9918856b588179cde7345e3f6cad",
          "transactionIndex": "0x0",
          "logIndex": "0x0",
          "removed": false
        }
      ],
      "logsBloom": "0x00000000000000000000000000000000000000000000000000800000000000000800000020000000000000000040000000000000000000000104000000000000000000000000000000000000000000000001000000000000000000000000000000000000000000002000000000000000000000000000000000000000000000400000000000000200000000000000000000000000000000000000000020000800000000000000000000000000000000000000000000000000000000000000000000000000000000000000000000000000000000000000000000000000000000000000000000000000000000000000000000000000000000000000000000000000",
      "type": "0x2",
      "transactionHash": "0x714ce0bca06675886c9712e8eb0ce444d4fe9918856b588179cde7345e3f6cad",
      "transactionIndex": "0x0",
      "blockHash": "0xd2cc2a566f471d7e794218488141e75cc7e1a98dad9fd8259c8af2e52e18e6c8",
      "blockNumber": "0x31f25b",
      "gasUsed": "0x7b31",
      "effectiveGasPrice": "0x746a528801",
      "from": "0x12e048d4f26f54c0625ef34fabd365e4f925f2ff",
      "to": "0x41e7789d716ac9f7406d559d8344fd84a3670025",
      "contractAddress": null
    },
    {
      "status": "0x1",
      "cumulativeGasUsed": "0x7b31",
      "logs": [
        {
          "address": "0xf6123e406049eb4cef89e81266c6320f1a35620b",
          "topics": [
            "0x8be0079c531659141344cd1fd0a4f28419497f9722a3daafe3b4186f6b6457e0",
            "0x00000000000000000000000012e048d4f26f54c0625ef34fabd365e4f925f2ff",
            "0x0000000000000000000000001ad157b53f81db0f4a5588ce61f897e80cfd04b6"
          ],
          "data": "0x",
          "blockHash": "0x21399ff695f5ee1ccdda1e5d9a41565ba9f2acf5b50c48abcee1aa9f4b6b1d5e",
          "blockNumber": "0x31f25c",
          "transactionHash": "0xb3c6ae97714ee9c33c1bb675cc7f252d8d52ff85f0037b3712ceccea90fef58e",
          "transactionIndex": "0x0",
          "logIndex": "0x0",
          "removed": false
        }
      ],
      "logsBloom": "0x00000000000000000000000000000000000000000000000000800000000000000800000000000000000000000040000000000000000000000104000000000000000000000000000000000000000000000001000000000000000000000000000000000000000000000000000000000000000000000000000000000000000000400000000000000000000000000000000000000000000000000000000020000800001000000000000000000000000000000000000000000000000000000000000000000000000000000000000000000000000000000000000000000800000000000000000000000000000000000000000000000000000000000000000200000000",
      "type": "0x2",
      "transactionHash": "0xb3c6ae97714ee9c33c1bb675cc7f252d8d52ff85f0037b3712ceccea90fef58e",
      "transactionIndex": "0x0",
      "blockHash": "0x21399ff695f5ee1ccdda1e5d9a41565ba9f2acf5b50c48abcee1aa9f4b6b1d5e",
      "blockNumber": "0x31f25c",
      "gasUsed": "0x7b31",
      "effectiveGasPrice": "0x746a528801",
      "from": "0x12e048d4f26f54c0625ef34fabd365e4f925f2ff",
      "to": "0xf6123e406049eb4cef89e81266c6320f1a35620b",
      "contractAddress": null
    },
    {
      "status": "0x1",
      "cumulativeGasUsed": "0x7b31",
      "logs": [
        {
          "address": "0x5e0054070ebdd639f30cc8f51a709ac0fad9f9bf",
          "topics": [
            "0x8be0079c531659141344cd1fd0a4f28419497f9722a3daafe3b4186f6b6457e0",
            "0x00000000000000000000000012e048d4f26f54c0625ef34fabd365e4f925f2ff",
            "0x0000000000000000000000001ad157b53f81db0f4a5588ce61f897e80cfd04b6"
          ],
          "data": "0x",
          "blockHash": "0xf47ee3750e2845ebae090aaf9459e37d3d616db2d7c92e77ea2703dd5099256c",
          "blockNumber": "0x31f25d",
          "transactionHash": "0x4b113ae5f2bd081d8b808319d9e793fb9c9a954bd0087c6d65cc1a259f15b9b7",
          "transactionIndex": "0x0",
          "logIndex": "0x0",
          "removed": false
        }
      ],
      "logsBloom": "0x00000000000000000000000000000000000000000000000000800100000000000800000000000000000000000040000000000000000000000104000000000000000000000000000000000000000000000001000000000000000000000000000000000000000000000000000000000000000000100000000000000000000000400000000000000000000000000000000000000000000000000000000020000800000000000000000000000000000000000000000000000000000000000000000000000000000000000000000000000000000200000000000000000000000000000000000000000000000000000000000000000000000000000000000000000000",
      "type": "0x2",
      "transactionHash": "0x4b113ae5f2bd081d8b808319d9e793fb9c9a954bd0087c6d65cc1a259f15b9b7",
      "transactionIndex": "0x0",
      "blockHash": "0xf47ee3750e2845ebae090aaf9459e37d3d616db2d7c92e77ea2703dd5099256c",
      "blockNumber": "0x31f25d",
      "gasUsed": "0x7b31",
      "effectiveGasPrice": "0x746a528801",
      "from": "0x12e048d4f26f54c0625ef34fabd365e4f925f2ff",
      "to": "0x5e0054070ebdd639f30cc8f51a709ac0fad9f9bf",
      "contractAddress": null
    },
    {
      "status": "0x1",
      "cumulativeGasUsed": "0xff95",
      "logs": [
        {
          "address": "0x53a3ba771ee61f6484c5b2a902d2674bf52ad832",
          "topics": [
            "0x8be0079c531659141344cd1fd0a4f28419497f9722a3daafe3b4186f6b6457e0",
            "0x00000000000000000000000012e048d4f26f54c0625ef34fabd365e4f925f2ff",
            "0x0000000000000000000000001ad157b53f81db0f4a5588ce61f897e80cfd04b6"
          ],
          "data": "0x",
          "blockHash": "0x76d4c3abfb27f7b230664d50a53a0bec745e2408dca4c260437e2e40e60a9c06",
          "blockNumber": "0x31f25e",
          "transactionHash": "0x698e2143a939ad1be72fb9c0fe6eb5cf3702852d2edece0f529462a17843f906",
          "transactionIndex": "0x1",
          "logIndex": "0x1",
          "removed": false
        }
      ],
      "logsBloom": "0x00000000000000000000000000000000000000000000000000800000000000000800000000000000000000000040000001000000000000000104000000000000400000000000000000000000000000000001000000000000000000000000000000000000000000000000000000000000000000000000000000000000000000400000000000000000000000000000000000000100000000000000000020000800000000000000000000000000000000000000000000000000000000000000000000000000000000000000000000000000000000000000000000000000000000000000000000000000000000000000000000000000000000000000000000000000",
      "type": "0x2",
      "transactionHash": "0x698e2143a939ad1be72fb9c0fe6eb5cf3702852d2edece0f529462a17843f906",
      "transactionIndex": "0x1",
      "blockHash": "0x76d4c3abfb27f7b230664d50a53a0bec745e2408dca4c260437e2e40e60a9c06",
      "blockNumber": "0x31f25e",
      "gasUsed": "0x7b31",
      "effectiveGasPrice": "0x746a528801",
      "from": "0x12e048d4f26f54c0625ef34fabd365e4f925f2ff",
      "to": "0x53a3ba771ee61f6484c5b2a902d2674bf52ad832",
      "contractAddress": null
    },
    {
      "status": "0x1",
      "cumulativeGasUsed": "0x7b31",
      "logs": [
        {
          "address": "0xbb5c7f82bf9817f6e46c5b20c863558ecc66e129",
          "topics": [
            "0x8be0079c531659141344cd1fd0a4f28419497f9722a3daafe3b4186f6b6457e0",
            "0x00000000000000000000000012e048d4f26f54c0625ef34fabd365e4f925f2ff",
            "0x0000000000000000000000001ad157b53f81db0f4a5588ce61f897e80cfd04b6"
          ],
          "data": "0x",
          "blockHash": "0xbfbdb36756399f0fdb4aaa4420527f8784eb26e9a7dc8ae1cf38a994780511ed",
          "blockNumber": "0x31f25f",
          "transactionHash": "0x1018c30695a471ed17e3c16d245d62037bb38b48b5fc5e306eb4597ffd18511a",
          "transactionIndex": "0x0",
          "logIndex": "0x0",
          "removed": false
        }
      ],
      "logsBloom": "0x00000000000000000000000000000000000000000000000000800000000000000800000000000000000000000040000000000000000000000104000000000000000000000000000000000000000000000001000000000000000000000000000000000000000000000000000000000000000000000000000000000000000000400000000000000000000000000000000000000000000000000000000020000800000000000000000000000000000000000000000000000000000000000000000000000000000004000000000000000000000000000000000000400000000000000000000000000000000000000000000000000000000000000000000000001000",
      "type": "0x2",
      "transactionHash": "0x1018c30695a471ed17e3c16d245d62037bb38b48b5fc5e306eb4597ffd18511a",
      "transactionIndex": "0x0",
      "blockHash": "0xbfbdb36756399f0fdb4aaa4420527f8784eb26e9a7dc8ae1cf38a994780511ed",
      "blockNumber": "0x31f25f",
      "gasUsed": "0x7b31",
      "effectiveGasPrice": "0x746a528801",
      "from": "0x12e048d4f26f54c0625ef34fabd365e4f925f2ff",
      "to": "0xbb5c7f82bf9817f6e46c5b20c863558ecc66e129",
      "contractAddress": null
    },
    {
      "status": "0x1",
      "cumulativeGasUsed": "0x7b31",
      "logs": [
        {
          "address": "0xd70bb02e48178635c2e4e7453960f46fba358098",
          "topics": [
            "0x8be0079c531659141344cd1fd0a4f28419497f9722a3daafe3b4186f6b6457e0",
            "0x00000000000000000000000012e048d4f26f54c0625ef34fabd365e4f925f2ff",
            "0x0000000000000000000000001ad157b53f81db0f4a5588ce61f897e80cfd04b6"
          ],
          "data": "0x",
          "blockHash": "0x380a02423fe668f7cb44bbdd531f45e67664642440204824a24f81a954d66d25",
          "blockNumber": "0x31f260",
          "transactionHash": "0xa667cc7d634a46e34bf3a84556245b2dead7db5d9c3a17b191b69271d3d747cb",
          "transactionIndex": "0x0",
          "logIndex": "0x0",
          "removed": false
        }
      ],
      "logsBloom": "0x00000000000000001000000000000000000000000000000000800000000000000800000000000000000000000040000000000000000000000104000000000000000000000000000000000000000000000001000000000000000000000000000000000000000000000000000000000000000000000000000000000000000000400000000000000000000000000000000000000000000000000000000020000800000000000000040000000000000000000000000000000000000000000000000000000000000000000000000000000000000000000000000000000000000000000000000000000000000000000000000000000000000000000000000000004000",
      "type": "0x2",
      "transactionHash": "0xa667cc7d634a46e34bf3a84556245b2dead7db5d9c3a17b191b69271d3d747cb",
      "transactionIndex": "0x0",
      "blockHash": "0x380a02423fe668f7cb44bbdd531f45e67664642440204824a24f81a954d66d25",
      "blockNumber": "0x31f260",
      "gasUsed": "0x7b31",
      "effectiveGasPrice": "0x746a528801",
      "from": "0x12e048d4f26f54c0625ef34fabd365e4f925f2ff",
      "to": "0xd70bb02e48178635c2e4e7453960f46fba358098",
      "contractAddress": null
    },
    {
      "status": "0x1",
      "cumulativeGasUsed": "0x8379",
      "logs": [
        {
          "address": "0x8bd5fe9286b039cc38d9b63865a8e87736382ccf",
          "topics": [
            "0x8be0079c531659141344cd1fd0a4f28419497f9722a3daafe3b4186f6b6457e0",
            "0x00000000000000000000000012e048d4f26f54c0625ef34fabd365e4f925f2ff",
            "0x0000000000000000000000001ad157b53f81db0f4a5588ce61f897e80cfd04b6"
          ],
          "data": "0x",
          "blockHash": "0x81218b7fc3687d5b9fa69ae661ce155da4e6ad2622019f020ce0d3f6e213e065",
          "blockNumber": "0x31f261",
          "transactionHash": "0x749af1b5d6524d5b34624ee08d7516c86bf87ea00bc8c0611ac33a5a614d13cd",
          "transactionIndex": "0x0",
          "logIndex": "0x0",
          "removed": false
        }
      ],
      "logsBloom": "0x00000000000000000000000000000000000000000000000000800000000000000800000000000000000000000040000000100000000000000104000000000000000000000000000000000000000000000001000000000000000000000080000000000000000000000000000000000000000000000000000000000000000000400000000200000000000000000000000000000000000000000000000020000800000000000000000000000000000000000000000000000000000000000000000000000000000000000000000000000000000000000000000000000000000000000000000000000000000000000000000000000000000000000000000000000000",
      "type": "0x2",
      "transactionHash": "0x749af1b5d6524d5b34624ee08d7516c86bf87ea00bc8c0611ac33a5a614d13cd",
      "transactionIndex": "0x0",
      "blockHash": "0x81218b7fc3687d5b9fa69ae661ce155da4e6ad2622019f020ce0d3f6e213e065",
      "blockNumber": "0x31f261",
      "gasUsed": "0x8379",
      "effectiveGasPrice": "0x746a528801",
      "from": "0x12e048d4f26f54c0625ef34fabd365e4f925f2ff",
      "to": "0x8bd5fe9286b039cc38d9b63865a8e87736382ccf",
      "contractAddress": null
    }
  ],
  "libraries": [],
  "pending": [],
  "returns": {},
  "timestamp": 1747293213,
  "chain": 4158,
  "commit": "e05b522"
}