{
  "transactions": [
    {
      "hash": "0xc2b5b54c808701a7184b16b0d4394b955eedf24cd81effa018d9fbfd6877d8a7",
      "transactionType": "CALL",
      "contractName": null,
      "contractAddress": "0x10baa5c14ebde8681e83b2503682b3f45b8dc4c2",
      "function": "setFeeReceiver(address)",
      "arguments": [
        "0x48157f21563aC5BD87b00d4E885bdb728aB619e2"
      ],
      "transaction": {
        "from": "0x12e048d4f26f54c0625ef34fabd365e4f925f2ff",
        "to": "0x10baa5c14ebde8681e83b2503682b3f45b8dc4c2",
        "gas": "0xcc89",
        "value": "0x0",
        "input": "0xefdcd97400000000000000000000000048157f21563ac5bd87b00d4e885bdb728ab619e2",
        "nonce": "0xd7",
        "chainId": "0x103e"
      },
      "additionalContracts": [],
      "isFixedGasLimit": false
    },
    {
      "hash": null,
      "transactionType": "CALL",
      "contractName": null,
      "contractAddress": "0xeeea508c10dcfd3f1e482d2af2e830a1d4b94f86",
      "function": "setFeeReceiver(address)",
      "arguments": [
        "0x48157f21563aC5BD87b00d4E885bdb728aB619e2"
      ],
      "transaction": {
        "from": "0x12e048d4f26f54c0625ef34fabd365e4f925f2ff",
        "to": "0xeeea508c10dcfd3f1e482d2af2e830a1d4b94f86",
        "gas": "0xbedc",
        "value": "0x0",
        "input": "0xefdcd97400000000000000000000000048157f21563ac5bd87b00d4e885bdb728ab619e2",
        "nonce": "0xd8",
        "chainId": "0x103e"
      },
      "additionalContracts": [],
      "isFixedGasLimit": false
    }
  ],
  "receipts": [],
  "libraries": [],
  "pending": [
    "0xc2b5b54c808701a7184b16b0d4394b955eedf24cd81effa018d9fbfd6877d8a7"
  ],
  "returns": {},
  "timestamp": 1747292158,
  "chain": 4158,
  "commit": "e05b522"
}